{
  "contractName": "Record",
  "abi": [
    {
      "anonymous": false,
      "inputs": [
        {
          "indexed": false,
          "internalType": "address",
          "name": "hospital",
          "type": "address"
        }
      ],
      "name": "HospitalAddition",
      "type": "event"
    },
    {
      "constant": true,
      "inputs": [
        {
          "internalType": "address",
          "name": "",
          "type": "address"
        }
      ],
      "name": "doctorlist",
      "outputs": [
        {
          "internalType": "string",
          "name": "doctorname",
          "type": "string"
        },
        {
          "internalType": "string",
          "name": "password",
          "type": "string"
        },
        {
          "internalType": "address",
          "name": "doctoraddress",
          "type": "address"
        },
        {
          "internalType": "bool",
          "name": "set",
          "type": "bool"
        }
      ],
      "payable": false,
      "stateMutability": "view",
      "type": "function"
    },
    {
      "constant": true,
      "inputs": [
        {
          "internalType": "address",
          "name": "",
          "type": "address"
        }
      ],
      "name": "isHospital",
      "outputs": [
        {
          "internalType": "bool",
          "name": "",
          "type": "bool"
        }
      ],
      "payable": false,
      "stateMutability": "view",
      "type": "function"
    },
    {
      "constant": true,
      "inputs": [],
      "name": "recordCount",
      "outputs": [
        {
          "internalType": "uint256",
          "name": "",
          "type": "uint256"
        }
      ],
      "payable": false,
      "stateMutability": "view",
      "type": "function"
    },
    {
      "constant": true,
      "inputs": [
        {
          "internalType": "string",
          "name": "",
          "type": "string"
        },
        {
          "internalType": "uint256",
          "name": "",
          "type": "uint256"
        }
      ],
      "name": "recordList",
      "outputs": [
        {
          "internalType": "string",
          "name": "doctor",
          "type": "string"
        },
        {
          "internalType": "string",
          "name": "patient",
          "type": "string"
        },
        {
          "internalType": "uint256",
          "name": "admissionDate",
          "type": "uint256"
        }
      ],
      "payable": false,
      "stateMutability": "view",
      "type": "function"
    },
    {
      "constant": true,
      "inputs": [],
      "name": "userCount",
      "outputs": [
        {
          "internalType": "uint256",
          "name": "",
          "type": "uint256"
        }
      ],
      "payable": false,
      "stateMutability": "view",
      "type": "function"
    },
    {
      "constant": true,
      "inputs": [
        {
          "internalType": "address",
          "name": "",
          "type": "address"
        }
      ],
      "name": "userlist",
      "outputs": [
        {
          "internalType": "string",
          "name": "accountname",
          "type": "string"
        },
        {
          "internalType": "string",
          "name": "password",
          "type": "string"
        },
        {
          "internalType": "address",
          "name": "useraddress",
          "type": "address"
        },
        {
          "internalType": "bool",
          "name": "set",
          "type": "bool"
        }
      ],
      "payable": false,
      "stateMutability": "view",
      "type": "function"
    },
    {
      "constant": true,
      "inputs": [
        {
          "internalType": "address",
          "name": "_address",
          "type": "address"
        }
      ],
      "name": "find_user_name",
      "outputs": [
        {
          "internalType": "string",
          "name": "",
          "type": "string"
        }
      ],
      "payable": false,
      "stateMutability": "view",
      "type": "function"
    },
    {
      "constant": true,
      "inputs": [
        {
          "internalType": "address",
          "name": "_address",
          "type": "address"
        }
      ],
      "name": "find_user_password",
      "outputs": [
        {
          "internalType": "string",
          "name": "",
          "type": "string"
        }
      ],
      "payable": false,
      "stateMutability": "view",
      "type": "function"
    },
    {
      "constant": false,
      "inputs": [
        {
          "internalType": "string",
          "name": "_accountname",
          "type": "string"
        },
        {
          "internalType": "string",
          "name": "_password",
          "type": "string"
        },
        {
          "internalType": "address",
          "name": "_useraddress",
          "type": "address"
        },
        {
          "internalType": "bool",
          "name": "_userset",
          "type": "bool"
        }
      ],
      "name": "addUser",
      "outputs": [],
      "payable": false,
      "stateMutability": "nonpayable",
      "type": "function"
    },
    {
      "constant": false,
      "inputs": [
        {
          "internalType": "address",
          "name": "_hospital",
          "type": "address"
        }
      ],
      "name": "addHospital",
      "outputs": [],
      "payable": false,
      "stateMutability": "nonpayable",
      "type": "function"
    },
    {
      "constant": false,
      "inputs": [
        {
          "internalType": "string",
          "name": "_doctorname",
          "type": "string"
        },
        {
          "internalType": "string",
          "name": "_password",
          "type": "string"
        },
        {
          "internalType": "address",
          "name": "_doctoraddress",
          "type": "address"
        },
        {
          "internalType": "bool",
          "name": "_doctorset",
          "type": "bool"
        }
      ],
      "name": "addDoctor",
      "outputs": [],
      "payable": false,
      "stateMutability": "nonpayable",
      "type": "function"
    },
    {
      "constant": false,
      "inputs": [
        {
          "internalType": "string",
          "name": "_patientaddress",
          "type": "string"
        },
        {
          "internalType": "string",
          "name": "_docaddress",
          "type": "string"
        },
        {
          "internalType": "uint256",
          "name": "_addmissiondate",
          "type": "uint256"
        },
        {
          "internalType": "string[]",
          "name": "_symptomsnames",
          "type": "string[]"
        },
        {
          "internalType": "string[]",
          "name": "_medicine",
          "type": "string[]"
        },
        {
          "internalType": "string[]",
          "name": "_disease",
          "type": "string[]"
        }
      ],
      "name": "addRecord",
      "outputs": [],
      "payable": false,
      "stateMutability": "nonpayable",
      "type": "function"
    },
    {
      "constant": true,
      "inputs": [
        {
          "internalType": "string",
          "name": "_patientaddress",
          "type": "string"
        },
        {
          "internalType": "uint256",
          "name": "_recordnum",
          "type": "uint256"
        }
      ],
      "name": "getRecord",
      "outputs": [
        {
          "internalType": "string",
          "name": "_doctor",
          "type": "string"
        },
        {
          "internalType": "uint256",
          "name": "_admissionDate",
          "type": "uint256"
        },
        {
          "internalType": "string[]",
          "name": "_symptoms",
          "type": "string[]"
        },
        {
          "internalType": "string[]",
          "name": "_disease",
          "type": "string[]"
        },
        {
          "internalType": "string[]",
          "name": "_medicine",
          "type": "string[]"
        }
      ],
      "payable": false,
      "stateMutability": "view",
      "type": "function"
    },
    {
      "constant": true,
      "inputs": [
        {
          "internalType": "address",
          "name": "_docaddress",
          "type": "address"
        }
      ],
      "name": "getDoctorName",
      "outputs": [
        {
          "internalType": "string",
          "name": "",
          "type": "string"
        }
      ],
      "payable": false,
      "stateMutability": "view",
      "type": "function"
    },
    {
      "constant": true,
      "inputs": [
        {
          "internalType": "address",
          "name": "_docaddress",
          "type": "address"
        }
      ],
      "name": "getDoctorPassword",
      "outputs": [
        {
          "internalType": "string",
          "name": "",
          "type": "string"
        }
      ],
      "payable": false,
      "stateMutability": "view",
      "type": "function"
    }
  ],
  "bytecode": "0x608060405260008055600060025534801561001957600080fd5b50611f72806100296000396000f3fe608060405234801561001057600080fd5b50600436106100f45760003560e01c806389db603e11610097578063c32c869b11610066578063c32c869b146102c3578063c444e19e146102df578063e69465cd14610312578063ff69ddc414610345576100f4565b806389db603e14610225578063900407bc14610241578063bc60f6a11461025f578063bdf6c67314610293576100f4565b80633944d71a116100d35780633944d71a146101635780636222c0cf146101955780636294851c146101c5578063847b7758146101f5576100f4565b8062c12c6c146100f957806307973ccf146101295780631b470bc714610147575b600080fd5b610113600480360361010e919081019061179e565b610361565b6040516101209190611be2565b60405180910390f35b610131610445565b60405161013e9190611d0b565b60405180910390f35b610161600480360361015c919081019061179e565b61044b565b005b61017d600480360361017891908101906119af565b6104dd565b60405161018c93929190611cc6565b60405180910390f35b6101af60048036036101aa919081019061179e565b61065a565b6040516101bc9190611be2565b60405180910390f35b6101df60048036036101da919081019061179e565b61073e565b6040516101ec9190611be2565b60405180910390f35b61020f600480360361020a919081019061179e565b610822565b60405161021c9190611be2565b60405180910390f35b61023f600480360361023a91908101906117c7565b610906565b005b610249610a88565b6040516102569190611d0b565b60405180910390f35b6102796004803603610274919081019061195b565b610a8e565b60405161028a959493929190611c04565b60405180910390f35b6102ad60048036036102a8919081019061179e565b610edf565b6040516102ba9190611bc7565b60405180910390f35b6102dd60048036036102d891908101906117c7565b610eff565b005b6102f960048036036102f4919081019061179e565b611089565b6040516103099493929190611c73565b60405180910390f35b61032c6004803603610327919081019061179e565b611216565b60405161033c9493929190611c73565b60405180910390f35b61035f600480360361035a919081019061185a565b6113a3565b005b6060600160008373ffffffffffffffffffffffffffffffffffffffff1673ffffffffffffffffffffffffffffffffffffffff1681526020019081526020016000206001018054600181600116156101000203166002900480601f0160208091040260200160405190810160405280929190818152602001828054600181600116156101000203166002900480156104395780601f1061040e57610100808354040283529160200191610439565b820191906000526020600020905b81548152906001019060200180831161041c57829003601f168201915b50505050509050919050565b60005481565b6001600360008373ffffffffffffffffffffffffffffffffffffffff1673ffffffffffffffffffffffffffffffffffffffff16815260200190815260200160002060006101000a81548160ff0219169083151502179055507f287ab756b8d47062a978ed6e40674fb341af71a7b67a1c47d68c41816e77f710816040516104d29190611bac565b60405180910390a150565b60058280516020810182018051848252602083016020850120818352809550505050505060205280600052604060002060009150915050806000018054600181600116156101000203166002900480601f0160208091040260200160405190810160405280929190818152602001828054600181600116156101000203166002900480156105ac5780601f10610581576101008083540402835291602001916105ac565b820191906000526020600020905b81548152906001019060200180831161058f57829003601f168201915b505050505090806001018054600181600116156101000203166002900480601f01602080910402602001604051908101604052809291908181526020018280546001816001161561010002031660029004801561064a5780601f1061061f5761010080835404028352916020019161064a565b820191906000526020600020905b81548152906001019060200180831161062d57829003601f168201915b5050505050908060020154905083565b6060600160008373ffffffffffffffffffffffffffffffffffffffff1673ffffffffffffffffffffffffffffffffffffffff1681526020019081526020016000206000018054600181600116156101000203166002900480601f0160208091040260200160405190810160405280929190818152602001828054600181600116156101000203166002900480156107325780601f1061070757610100808354040283529160200191610732565b820191906000526020600020905b81548152906001019060200180831161071557829003601f168201915b50505050509050919050565b6060600460008373ffffffffffffffffffffffffffffffffffffffff1673ffffffffffffffffffffffffffffffffffffffff1681526020019081526020016000206001018054600181600116156101000203166002900480601f0160208091040260200160405190810160405280929190818152602001828054600181600116156101000203166002900480156108165780601f106107eb57610100808354040283529160200191610816565b820191906000526020600020905b8154815290600101906020018083116107f957829003601f168201915b50505050509050919050565b6060600460008373ffffffffffffffffffffffffffffffffffffffff1673ffffffffffffffffffffffffffffffffffffffff1681526020019081526020016000206000018054600181600116156101000203166002900480601f0160208091040260200160405190810160405280929190818152602001828054600181600116156101000203166002900480156108fa5780601f106108cf576101008083540402835291602001916108fa565b820191906000526020600020905b8154815290600101906020018083116108dd57829003601f168201915b50505050509050919050565b6000600460008473ffffffffffffffffffffffffffffffffffffffff1673ffffffffffffffffffffffffffffffffffffffff16815260200190815260200160002090508060020160149054906101000a900460ff161561096557600080fd5b60405180608001604052808681526020018581526020018473ffffffffffffffffffffffffffffffffffffffff168152602001831515815250600460008573ffffffffffffffffffffffffffffffffffffffff1673ffffffffffffffffffffffffffffffffffffffff16815260200190815260200160002060008201518160000190805190602001906109f99291906114ca565b506020820151816001019080519060200190610a169291906114ca565b5060408201518160020160006101000a81548173ffffffffffffffffffffffffffffffffffffffff021916908373ffffffffffffffffffffffffffffffffffffffff16021790555060608201518160020160146101000a81548160ff0219169083151502179055509050505050505050565b60025481565b606060006060806060600587604051610aa79190611b95565b908152602001604051809103902060008781526020019081526020016000206000018054600181600116156101000203166002900480601f016020809104026020016040519081016040528092919081815260200182805460018160011615610100020316600290048015610b5d5780601f10610b3257610100808354040283529160200191610b5d565b820191906000526020600020905b815481529060010190602001808311610b4057829003601f168201915b50505050509450600587604051610b749190611b95565b90815260200160405180910390206000878152602001908152602001600020600501805480602002602001604051908101604052809291908181526020016000905b82821015610c72578382906000526020600020018054600181600116156101000203166002900480601f016020809104026020016040519081016040528092919081815260200182805460018160011615610100020316600290048015610c5e5780601f10610c3357610100808354040283529160200191610c5e565b820191906000526020600020905b815481529060010190602001808311610c4157829003601f168201915b505050505081526020019060010190610bb6565b505050509050600587604051610c889190611b95565b90815260200160405180910390206000878152602001908152602001600020600301805480602002602001604051908101604052809291908181526020016000905b82821015610d86578382906000526020600020018054600181600116156101000203166002900480601f016020809104026020016040519081016040528092919081815260200182805460018160011615610100020316600290048015610d725780601f10610d4757610100808354040283529160200191610d72565b820191906000526020600020905b815481529060010190602001808311610d5557829003601f168201915b505050505081526020019060010190610cca565b505050509250600587604051610d9c9190611b95565b90815260200160405180910390206000878152602001908152602001600020600401805480602002602001604051908101604052809291908181526020016000905b82821015610e9a578382906000526020600020018054600181600116156101000203166002900480601f016020809104026020016040519081016040528092919081815260200182805460018160011615610100020316600290048015610e865780601f10610e5b57610100808354040283529160200191610e86565b820191906000526020600020905b815481529060010190602001808311610e6957829003601f168201915b505050505081526020019060010190610dde565b505050509150600587604051610eb09190611b95565b908152602001604051809103902060008781526020019081526020016000206002015493509295509295909350565b60036020528060005260406000206000915054906101000a900460ff1681565b6000600160008473ffffffffffffffffffffffffffffffffffffffff1673ffffffffffffffffffffffffffffffffffffffff16815260200190815260200160002090508060020160149054906101000a900460ff1615610f5e57600080fd5b610f666114b8565b60405180608001604052808681526020018581526020018473ffffffffffffffffffffffffffffffffffffffff168152602001831515815250600160008573ffffffffffffffffffffffffffffffffffffffff1673ffffffffffffffffffffffffffffffffffffffff1681526020019081526020016000206000820151816000019080519060200190610ffa9291906114ca565b5060208201518160010190805190602001906110179291906114ca565b5060408201518160020160006101000a81548173ffffffffffffffffffffffffffffffffffffffff021916908373ffffffffffffffffffffffffffffffffffffffff16021790555060608201518160020160146101000a81548160ff0219169083151502179055509050505050505050565b6001602052806000526040600020600091509050806000018054600181600116156101000203166002900480601f0160208091040260200160405190810160405280929190818152602001828054600181600116156101000203166002900480156111355780601f1061110a57610100808354040283529160200191611135565b820191906000526020600020905b81548152906001019060200180831161111857829003601f168201915b505050505090806001018054600181600116156101000203166002900480601f0160208091040260200160405190810160405280929190818152602001828054600181600116156101000203166002900480156111d35780601f106111a8576101008083540402835291602001916111d3565b820191906000526020600020905b8154815290600101906020018083116111b657829003601f168201915b5050505050908060020160009054906101000a900473ffffffffffffffffffffffffffffffffffffffff16908060020160149054906101000a900460ff16905084565b6004602052806000526040600020600091509050806000018054600181600116156101000203166002900480601f0160208091040260200160405190810160405280929190818152602001828054600181600116156101000203166002900480156112c25780601f10611297576101008083540402835291602001916112c2565b820191906000526020600020905b8154815290600101906020018083116112a557829003601f168201915b505050505090806001018054600181600116156101000203166002900480601f0160208091040260200160405190810160405280929190818152602001828054600181600116156101000203166002900480156113605780601f1061133557610100808354040283529160200191611360565b820191906000526020600020905b81548152906001019060200180831161134357829003601f168201915b5050505050908060020160009054906101000a900473ffffffffffffffffffffffffffffffffffffffff16908060020160149054906101000a900460ff16905084565b6040518060c00160405280868152602001878152602001858152602001848152602001828152602001838152506005876040516113e09190611b95565b908152602001604051809103902060006002548152602001908152602001600020600082015181600001908051906020019061141d9291906114ca565b50602082015181600101908051906020019061143a9291906114ca565b5060408201518160020155606082015181600301908051906020019061146192919061154a565b50608082015181600401908051906020019061147e92919061154a565b5060a082015181600501908051906020019061149b92919061154a565b509050506001600260008282540192505081905550505050505050565b60016000808282540192505081905550565b828054600181600116156101000203166002900490600052602060002090601f016020900481019282601f1061150b57805160ff1916838001178555611539565b82800160010185558215611539579182015b8281111561153857825182559160200191906001019061151d565b5b50905061154691906115aa565b5090565b828054828255906000526020600020908101928215611599579160200282015b828111156115985782518290805190602001906115889291906114ca565b509160200191906001019061156a565b5b5090506115a691906115cf565b5090565b6115cc91905b808211156115c85760008160009055506001016115b0565b5090565b90565b6115f891905b808211156115f457600081816115eb91906115fb565b506001016115d5565b5090565b90565b50805460018160011615610100020316600290046000825580601f106116215750611640565b601f01602090049060005260206000209081019061163f91906115aa565b5b50565b60008135905061165281611eea565b92915050565b600082601f83011261166957600080fd5b813561167c61167782611d53565b611d26565b9150818183526020840193506020810190508360005b838110156116c257813586016116a888826116e1565b845260208401935060208301925050600181019050611692565b5050505092915050565b6000813590506116db81611f01565b92915050565b600082601f8301126116f257600080fd5b813561170561170082611d7b565b611d26565b9150808252602083016020830185838301111561172157600080fd5b61172c838284611e97565b50505092915050565b600082601f83011261174657600080fd5b813561175961175482611da7565b611d26565b9150808252602083016020830185838301111561177557600080fd5b611780838284611e97565b50505092915050565b60008135905061179881611f18565b92915050565b6000602082840312156117b057600080fd5b60006117be84828501611643565b91505092915050565b600080600080608085870312156117dd57600080fd5b600085013567ffffffffffffffff8111156117f757600080fd5b61180387828801611735565b945050602085013567ffffffffffffffff81111561182057600080fd5b61182c87828801611735565b935050604061183d87828801611643565b925050606061184e878288016116cc565b91505092959194509250565b60008060008060008060c0878903121561187357600080fd5b600087013567ffffffffffffffff81111561188d57600080fd5b61189989828a01611735565b965050602087013567ffffffffffffffff8111156118b657600080fd5b6118c289828a01611735565b95505060406118d389828a01611789565b945050606087013567ffffffffffffffff8111156118f057600080fd5b6118fc89828a01611658565b935050608087013567ffffffffffffffff81111561191957600080fd5b61192589828a01611658565b92505060a087013567ffffffffffffffff81111561194257600080fd5b61194e89828a01611658565b9150509295509295509295565b6000806040838503121561196e57600080fd5b600083013567ffffffffffffffff81111561198857600080fd5b61199485828601611735565b92505060206119a585828601611789565b9150509250929050565b600080604083850312156119c257600080fd5b600083013567ffffffffffffffff8111156119dc57600080fd5b6119e8858286016116e1565b92505060206119f985828601611789565b9150509250929050565b6000611a0f8383611b14565b905092915050565b611a2081611e4f565b82525050565b6000611a3182611de3565b611a3b8185611e11565b935083602082028501611a4d85611dd3565b8060005b85811015611a895784840389528151611a6a8582611a03565b9450611a7583611e04565b925060208a01995050600181019050611a51565b50829750879550505050505092915050565b611aa481611e61565b82525050565b6000611ab582611df9565b611abf8185611e33565b9350611acf818560208601611ea6565b611ad881611ed9565b840191505092915050565b6000611aee82611df9565b611af88185611e44565b9350611b08818560208601611ea6565b80840191505092915050565b6000611b1f82611dee565b611b298185611e22565b9350611b39818560208601611ea6565b611b4281611ed9565b840191505092915050565b6000611b5882611dee565b611b628185611e33565b9350611b72818560208601611ea6565b611b7b81611ed9565b840191505092915050565b611b8f81611e8d565b82525050565b6000611ba18284611ae3565b915081905092915050565b6000602082019050611bc16000830184611a17565b92915050565b6000602082019050611bdc6000830184611a9b565b92915050565b60006020820190508181036000830152611bfc8184611aaa565b905092915050565b600060a0820190508181036000830152611c1e8188611aaa565b9050611c2d6020830187611b86565b8181036040830152611c3f8186611a26565b90508181036060830152611c538185611a26565b90508181036080830152611c678184611a26565b90509695505050505050565b60006080820190508181036000830152611c8d8187611b4d565b90508181036020830152611ca18186611b4d565b9050611cb06040830185611a17565b611cbd6060830184611a9b565b95945050505050565b60006060820190508181036000830152611ce08186611b4d565b90508181036020830152611cf48185611b4d565b9050611d036040830184611b86565b949350505050565b6000602082019050611d206000830184611b86565b92915050565b6000604051905081810181811067ffffffffffffffff82111715611d4957600080fd5b8060405250919050565b600067ffffffffffffffff821115611d6a57600080fd5b602082029050602081019050919050565b600067ffffffffffffffff821115611d9257600080fd5b601f19601f8301169050602081019050919050565b600067ffffffffffffffff821115611dbe57600080fd5b601f19601f8301169050602081019050919050565b6000819050602082019050919050565b600081519050919050565b600081519050919050565b600081519050919050565b6000602082019050919050565b600082825260208201905092915050565b600082825260208201905092915050565b600082825260208201905092915050565b600081905092915050565b6000611e5a82611e6d565b9050919050565b60008115159050919050565b600073ffffffffffffffffffffffffffffffffffffffff82169050919050565b6000819050919050565b82818337600083830152505050565b60005b83811015611ec4578082015181840152602081019050611ea9565b83811115611ed3576000848401525b50505050565b6000601f19601f8301169050919050565b611ef381611e4f565b8114611efe57600080fd5b50565b611f0a81611e61565b8114611f1557600080fd5b50565b611f2181611e8d565b8114611f2c57600080fd5b5056fea365627a7a723158201b613140c0f507e1246491ebb08ebcd50e720fcf148d6ccbac7ce56e3bdb6c6d6c6578706572696d656e74616cf564736f6c63430005100040",
  "source": "pragma solidity >=0.4.21 <0.7.0;\npragma experimental ABIEncoderV2;\ncontract Record\n{\n   \n      //structure for the user or patient model\n    struct user{\n        string accountname; //user name\n        string password;    //user password\n        address useraddress; //user ethereum address\n        bool set;\n    }\n    uint256 public userCount=0; //number of user or patient registered\n     \n    mapping(address => user)  public userlist;\n   \n    //return the user name by mapping the address\n    function find_user_name(address  _address) public view returns(string memory){      \n      return userlist[_address].accountname;\n    }\n   \n     //return the user name by mapping the address\n    function find_user_password(address  _address) public view returns(string memory){      \n      return userlist[_address].password;\n    }\n   \n   \n   \n    //add user's name, ethereum address and password\n    function addUser(string memory _accountname,string memory _password, address  _useraddress,bool _userset) public{\n        user storage User = userlist[_useraddress];\n        require(!User.set);\n        incrementcount();   //keep count of no. of registered user\n        userlist[_useraddress]=user(_accountname,_password,_useraddress,_userset);\n    }\n   \n \n   \n    //increments every time to keep track of registered user\n     function incrementcount() internal{\n        userCount+=1;\n    }\n   \n   \n   \n        //structure for the doctor\n    struct doctor{\n        string doctorname; //doctor name\n        string password;    //doctor password\n        address doctoraddress; //doctor ethereum address\n     \n        bool set; //to check whether doctor exist\n    }\n    uint256 public recordCount = 0;\n\n    //structure ro store record\n    struct record{\n     string doctor;\n     string patient;\n     uint256 admissionDate;\n     string[] symptoms;\n     string[] disease;\n     string[] medicine;\n    }\n   \n    event HospitalAddition(address hospital);\n   \n    mapping (address => bool) public isHospital;\n    mapping(address => doctor)  public doctorlist;\n    mapping(string => mapping(uint256 => record)) public recordList;\n\n     function addHospital(address _hospital)   public\n\n    {\n        isHospital[_hospital] = true;\n        emit HospitalAddition(_hospital);\n    }\n   \n   \n    function addDoctor(string memory _doctorname,string memory _password, address  _doctoraddress,bool _doctorset) public{\n         doctor storage Doctor = doctorlist[_doctoraddress];\n    // Check that the doctor did not already exist:\n         require(!Doctor.set);\n        doctorlist[_doctoraddress]=doctor(_doctorname,_password,_doctoraddress,_doctorset);\n    }\n   \n    function addRecord(string memory _patientaddress,string memory _docaddress,uint256 _addmissiondate,string[] memory _symptomsnames,string[] memory _medicine,string[] memory _disease) public{\n     \n        recordList[_patientaddress][recordCount]=record(_docaddress,_patientaddress,_addmissiondate,_symptomsnames,_disease,_medicine);\n        recordCount+=1;\n    }\n    function getRecord(string memory _patientaddress,uint256 _recordnum) public view returns(\n     string memory _doctor,\n     uint256 _admissionDate,\n     string[] memory _symptoms,\n     string[] memory _disease,\n     string[] memory _medicine){\n         _doctor=recordList[_patientaddress][_recordnum].doctor;\n       _medicine= recordList[_patientaddress][_recordnum].medicine;\n       _symptoms=recordList[_patientaddress][_recordnum].symptoms;\n       _disease=recordList[_patientaddress][_recordnum].disease;\n       _admissionDate=recordList[_patientaddress][_recordnum].admissionDate;\n    }\n   \n    function getDoctorName(address _docaddress)  public view returns(string memory){\n        return doctorlist[_docaddress].doctorname;\n    }\n    function getDoctorPassword(address _docaddress)  public view returns(string memory){\n        return doctorlist[_docaddress].password;\n    }\n   \n}\n",
  "sourcePath": "/home/anusha/Desktop/healthcare/contracts/Record.sol",
  "compiler": {
    "name": "solc",
    "version": "0.5.16+commit.9c3226ce.Emscripten.clang"
  },
  "schemaVersion": "3.0.23",
  "updatedAt": "2020-02-29T16:25:59.572Z",
  "devdoc": {
    "methods": {}
  },
  "userdoc": {
    "methods": {}
  }
}