{
  "contractName": "Record",
  "abi": [
    {
      "anonymous": false,
      "inputs": [
        {
          "indexed": false,
          "internalType": "address",
          "name": "hospital",
          "type": "address"
        }
      ],
      "name": "HospitalAddition",
      "type": "event"
    },
    {
      "constant": true,
      "inputs": [
        {
          "internalType": "address",
          "name": "",
          "type": "address"
        }
      ],
      "name": "doctorlist",
      "outputs": [
        {
          "internalType": "string",
          "name": "doctorname",
          "type": "string"
        },
        {
          "internalType": "string",
          "name": "password",
          "type": "string"
        },
        {
          "internalType": "address",
          "name": "doctoraddress",
          "type": "address"
        },
        {
          "internalType": "bool",
          "name": "set",
          "type": "bool"
        }
      ],
      "payable": false,
      "stateMutability": "view",
      "type": "function"
    },
    {
      "constant": true,
      "inputs": [
        {
          "internalType": "address",
          "name": "",
          "type": "address"
        }
      ],
      "name": "isHospital",
      "outputs": [
        {
          "internalType": "bool",
          "name": "",
          "type": "bool"
        }
      ],
      "payable": false,
      "stateMutability": "view",
      "type": "function"
    },
    {
      "constant": true,
      "inputs": [],
      "name": "recordCount",
      "outputs": [
        {
          "internalType": "uint256",
          "name": "",
          "type": "uint256"
        }
      ],
      "payable": false,
      "stateMutability": "view",
      "type": "function"
    },
    {
      "constant": true,
      "inputs": [
        {
          "internalType": "uint256",
          "name": "",
          "type": "uint256"
        },
        {
          "internalType": "address",
          "name": "",
          "type": "address"
        }
      ],
      "name": "recordList",
      "outputs": [
        {
          "internalType": "address",
          "name": "doctor",
          "type": "address"
        },
        {
          "internalType": "address",
          "name": "patient",
          "type": "address"
        },
        {
          "internalType": "uint256",
          "name": "_admissionDate",
          "type": "uint256"
        }
      ],
      "payable": false,
      "stateMutability": "view",
      "type": "function"
    },
    {
      "constant": true,
      "inputs": [],
      "name": "userCount",
      "outputs": [
        {
          "internalType": "uint256",
          "name": "",
          "type": "uint256"
        }
      ],
      "payable": false,
      "stateMutability": "view",
      "type": "function"
    },
    {
      "constant": true,
      "inputs": [
        {
          "internalType": "address",
          "name": "",
          "type": "address"
        }
      ],
      "name": "userlist",
      "outputs": [
        {
          "internalType": "string",
          "name": "accountname",
          "type": "string"
        },
        {
          "internalType": "string",
          "name": "password",
          "type": "string"
        },
        {
          "internalType": "address",
          "name": "useraddress",
          "type": "address"
        },
        {
          "internalType": "bool",
          "name": "set",
          "type": "bool"
        }
      ],
      "payable": false,
      "stateMutability": "view",
      "type": "function"
    },
    {
      "constant": true,
      "inputs": [
        {
          "internalType": "address",
          "name": "_address",
          "type": "address"
        }
      ],
      "name": "find_user_name",
      "outputs": [
        {
          "internalType": "string",
          "name": "",
          "type": "string"
        }
      ],
      "payable": false,
      "stateMutability": "view",
      "type": "function"
    },
    {
      "constant": true,
      "inputs": [
        {
          "internalType": "address",
          "name": "_address",
          "type": "address"
        }
      ],
      "name": "find_user_password",
      "outputs": [
        {
          "internalType": "string",
          "name": "",
          "type": "string"
        }
      ],
      "payable": false,
      "stateMutability": "view",
      "type": "function"
    },
    {
      "constant": false,
      "inputs": [
        {
          "internalType": "string",
          "name": "_accountname",
          "type": "string"
        },
        {
          "internalType": "string",
          "name": "_password",
          "type": "string"
        },
        {
          "internalType": "address",
          "name": "_useraddress",
          "type": "address"
        },
        {
          "internalType": "bool",
          "name": "_userset",
          "type": "bool"
        }
      ],
      "name": "addUser",
      "outputs": [],
      "payable": false,
      "stateMutability": "nonpayable",
      "type": "function"
    },
    {
      "constant": false,
      "inputs": [
        {
          "internalType": "address",
          "name": "_hospital",
          "type": "address"
        }
      ],
      "name": "addHospital",
      "outputs": [],
      "payable": false,
      "stateMutability": "nonpayable",
      "type": "function"
    },
    {
      "constant": false,
      "inputs": [
        {
          "internalType": "string",
          "name": "_doctorname",
          "type": "string"
        },
        {
          "internalType": "string",
          "name": "_password",
          "type": "string"
        },
        {
          "internalType": "address",
          "name": "_doctoraddress",
          "type": "address"
        },
        {
          "internalType": "bool",
          "name": "_doctorset",
          "type": "bool"
        }
      ],
      "name": "addDoctor",
      "outputs": [],
      "payable": false,
      "stateMutability": "nonpayable",
      "type": "function"
    },
    {
      "constant": false,
      "inputs": [
        {
          "internalType": "address",
          "name": "_patientaddress",
          "type": "address"
        },
        {
          "internalType": "address",
          "name": "_docaddress",
          "type": "address"
        },
        {
          "internalType": "uint256",
          "name": "_addmissiondate",
          "type": "uint256"
        },
        {
          "internalType": "string[]",
          "name": "_symptomsnames",
          "type": "string[]"
        }
      ],
      "name": "addRecord",
      "outputs": [],
      "payable": false,
      "stateMutability": "nonpayable",
      "type": "function"
    },
    {
      "constant": true,
      "inputs": [
        {
          "internalType": "address",
          "name": "_docaddress",
          "type": "address"
        }
      ],
      "name": "getDoctorName",
      "outputs": [
        {
          "internalType": "string",
          "name": "",
          "type": "string"
        }
      ],
      "payable": false,
      "stateMutability": "view",
      "type": "function"
    },
    {
      "constant": true,
      "inputs": [
        {
          "internalType": "address",
          "name": "_docaddress",
          "type": "address"
        }
      ],
      "name": "getDoctorPassword",
      "outputs": [
        {
          "internalType": "string",
          "name": "",
          "type": "string"
        }
      ],
      "payable": false,
      "stateMutability": "view",
      "type": "function"
    }
  ],
  "bytecode": "0x608060405260008055600060025534801561001957600080fd5b50611767806100296000396000f3fe608060405234801561001057600080fd5b50600436106100e95760003560e01c806388a450751161008c578063bdf6c67311610066578063bdf6c67314610270578063c32c869b146102a0578063c444e19e146102bc578063e69465cd146102ef576100e9565b806388a450751461021a57806389db603e14610236578063900407bc14610252576100e9565b80632d6c55a2116100c85780632d6c55a2146101585780636222c0cf1461018a5780636294851c146101ba578063847b7758146101ea576100e9565b8062c12c6c146100ee57806307973ccf1461011e5780631b470bc71461013c575b600080fd5b61010860048036036101039190810190611261565b610322565b60405161011591906114e0565b60405180910390f35b610126610406565b6040516101339190611555565b60405180910390f35b61015660048036036101519190810190611261565b61040c565b005b610172600480360361016d9190810190611398565b61049e565b6040516101819392919061148e565b60405180910390f35b6101a4600480360361019f9190810190611261565b610515565b6040516101b191906114e0565b60405180910390f35b6101d460048036036101cf9190810190611261565b6105f9565b6040516101e191906114e0565b60405180910390f35b61020460048036036101ff9190810190611261565b6106dd565b60405161021191906114e0565b60405180910390f35b610234600480360361022f919081019061128a565b6107c1565b005b610250600480360361024b9190810190611305565b61092f565b005b61025a610ab1565b6040516102679190611555565b60405180910390f35b61028a60048036036102859190810190611261565b610ab7565b60405161029791906114c5565b60405180910390f35b6102ba60048036036102b59190810190611305565b610ad7565b005b6102d660048036036102d19190810190611261565b610c61565b6040516102e69493929190611502565b60405180910390f35b61030960048036036103049190810190611261565b610dee565b6040516103199493929190611502565b60405180910390f35b6060600160008373ffffffffffffffffffffffffffffffffffffffff1673ffffffffffffffffffffffffffffffffffffffff1681526020019081526020016000206001018054600181600116156101000203166002900480601f0160208091040260200160405190810160405280929190818152602001828054600181600116156101000203166002900480156103fa5780601f106103cf576101008083540402835291602001916103fa565b820191906000526020600020905b8154815290600101906020018083116103dd57829003601f168201915b50505050509050919050565b60005481565b6001600360008373ffffffffffffffffffffffffffffffffffffffff1673ffffffffffffffffffffffffffffffffffffffff16815260200190815260200160002060006101000a81548160ff0219169083151502179055507f287ab756b8d47062a978ed6e40674fb341af71a7b67a1c47d68c41816e77f710816040516104939190611473565b60405180910390a150565b6005602052816000526040600020602052806000526040600020600091509150508060000160009054906101000a900473ffffffffffffffffffffffffffffffffffffffff16908060010160009054906101000a900473ffffffffffffffffffffffffffffffffffffffff16908060020154905083565b6060600160008373ffffffffffffffffffffffffffffffffffffffff1673ffffffffffffffffffffffffffffffffffffffff1681526020019081526020016000206000018054600181600116156101000203166002900480601f0160208091040260200160405190810160405280929190818152602001828054600181600116156101000203166002900480156105ed5780601f106105c2576101008083540402835291602001916105ed565b820191906000526020600020905b8154815290600101906020018083116105d057829003601f168201915b50505050509050919050565b6060600460008373ffffffffffffffffffffffffffffffffffffffff1673ffffffffffffffffffffffffffffffffffffffff1681526020019081526020016000206001018054600181600116156101000203166002900480601f0160208091040260200160405190810160405280929190818152602001828054600181600116156101000203166002900480156106d15780601f106106a6576101008083540402835291602001916106d1565b820191906000526020600020905b8154815290600101906020018083116106b457829003601f168201915b50505050509050919050565b6060600460008373ffffffffffffffffffffffffffffffffffffffff1673ffffffffffffffffffffffffffffffffffffffff1681526020019081526020016000206000018054600181600116156101000203166002900480601f0160208091040260200160405190810160405280929190818152602001828054600181600116156101000203166002900480156107b55780601f1061078a576101008083540402835291602001916107b5565b820191906000526020600020905b81548152906001019060200180831161079857829003601f168201915b50505050509050919050565b60405180608001604052808473ffffffffffffffffffffffffffffffffffffffff1681526020018573ffffffffffffffffffffffffffffffffffffffff1681526020018381526020018281525060056000600254815260200190815260200160002060008673ffffffffffffffffffffffffffffffffffffffff1673ffffffffffffffffffffffffffffffffffffffff16815260200190815260200160002060008201518160000160006101000a81548173ffffffffffffffffffffffffffffffffffffffff021916908373ffffffffffffffffffffffffffffffffffffffff16021790555060208201518160010160006101000a81548173ffffffffffffffffffffffffffffffffffffffff021916908373ffffffffffffffffffffffffffffffffffffffff160217905550604082015181600201556060820151816003019080519060200190610914929190610f8d565b50905050600160026000828254019250508190555050505050565b6000600460008473ffffffffffffffffffffffffffffffffffffffff1673ffffffffffffffffffffffffffffffffffffffff16815260200190815260200160002090508060020160149054906101000a900460ff161561098e57600080fd5b60405180608001604052808681526020018581526020018473ffffffffffffffffffffffffffffffffffffffff168152602001831515815250600460008573ffffffffffffffffffffffffffffffffffffffff1673ffffffffffffffffffffffffffffffffffffffff1681526020019081526020016000206000820151816000019080519060200190610a22929190610fed565b506020820151816001019080519060200190610a3f929190610fed565b5060408201518160020160006101000a81548173ffffffffffffffffffffffffffffffffffffffff021916908373ffffffffffffffffffffffffffffffffffffffff16021790555060608201518160020160146101000a81548160ff0219169083151502179055509050505050505050565b60025481565b60036020528060005260406000206000915054906101000a900460ff1681565b6000600160008473ffffffffffffffffffffffffffffffffffffffff1673ffffffffffffffffffffffffffffffffffffffff16815260200190815260200160002090508060020160149054906101000a900460ff1615610b3657600080fd5b610b3e610f7b565b60405180608001604052808681526020018581526020018473ffffffffffffffffffffffffffffffffffffffff168152602001831515815250600160008573ffffffffffffffffffffffffffffffffffffffff1673ffffffffffffffffffffffffffffffffffffffff1681526020019081526020016000206000820151816000019080519060200190610bd2929190610fed565b506020820151816001019080519060200190610bef929190610fed565b5060408201518160020160006101000a81548173ffffffffffffffffffffffffffffffffffffffff021916908373ffffffffffffffffffffffffffffffffffffffff16021790555060608201518160020160146101000a81548160ff0219169083151502179055509050505050505050565b6001602052806000526040600020600091509050806000018054600181600116156101000203166002900480601f016020809104026020016040519081016040528092919081815260200182805460018160011615610100020316600290048015610d0d5780601f10610ce257610100808354040283529160200191610d0d565b820191906000526020600020905b815481529060010190602001808311610cf057829003601f168201915b505050505090806001018054600181600116156101000203166002900480601f016020809104026020016040519081016040528092919081815260200182805460018160011615610100020316600290048015610dab5780601f10610d8057610100808354040283529160200191610dab565b820191906000526020600020905b815481529060010190602001808311610d8e57829003601f168201915b5050505050908060020160009054906101000a900473ffffffffffffffffffffffffffffffffffffffff16908060020160149054906101000a900460ff16905084565b6004602052806000526040600020600091509050806000018054600181600116156101000203166002900480601f016020809104026020016040519081016040528092919081815260200182805460018160011615610100020316600290048015610e9a5780601f10610e6f57610100808354040283529160200191610e9a565b820191906000526020600020905b815481529060010190602001808311610e7d57829003601f168201915b505050505090806001018054600181600116156101000203166002900480601f016020809104026020016040519081016040528092919081815260200182805460018160011615610100020316600290048015610f385780601f10610f0d57610100808354040283529160200191610f38565b820191906000526020600020905b815481529060010190602001808311610f1b57829003601f168201915b5050505050908060020160009054906101000a900473ffffffffffffffffffffffffffffffffffffffff16908060020160149054906101000a900460ff16905084565b60016000808282540192505081905550565b828054828255906000526020600020908101928215610fdc579160200282015b82811115610fdb578251829080519060200190610fcb929190610fed565b5091602001919060010190610fad565b5b509050610fe9919061106d565b5090565b828054600181600116156101000203166002900490600052602060002090601f016020900481019282601f1061102e57805160ff191683800117855561105c565b8280016001018555821561105c579182015b8281111561105b578251825591602001919060010190611040565b5b5090506110699190611099565b5090565b61109691905b80821115611092576000818161108991906110be565b50600101611073565b5090565b90565b6110bb91905b808211156110b757600081600090555060010161109f565b5090565b90565b50805460018160011615610100020316600290046000825580601f106110e45750611103565b601f0160209004906000526020600020908101906111029190611099565b5b50565b600081359050611115816116df565b92915050565b600082601f83011261112c57600080fd5b813561113f61113a8261159d565b611570565b9150818183526020840193506020810190508360005b83811015611185578135860161116b88826111a4565b845260208401935060208301925050600181019050611155565b5050505092915050565b60008135905061119e816116f6565b92915050565b600082601f8301126111b557600080fd5b81356111c86111c3826115c5565b611570565b915080825260208301602083018583830111156111e457600080fd5b6111ef83828461168c565b50505092915050565b600082601f83011261120957600080fd5b813561121c611217826115f1565b611570565b9150808252602083016020830185838301111561123857600080fd5b61124383828461168c565b50505092915050565b60008135905061125b8161170d565b92915050565b60006020828403121561127357600080fd5b600061128184828501611106565b91505092915050565b600080600080608085870312156112a057600080fd5b60006112ae87828801611106565b94505060206112bf87828801611106565b93505060406112d08782880161124c565b925050606085013567ffffffffffffffff8111156112ed57600080fd5b6112f98782880161111b565b91505092959194509250565b6000806000806080858703121561131b57600080fd5b600085013567ffffffffffffffff81111561133557600080fd5b611341878288016111f8565b945050602085013567ffffffffffffffff81111561135e57600080fd5b61136a878288016111f8565b935050604061137b87828801611106565b925050606061138c8782880161118f565b91505092959194509250565b600080604083850312156113ab57600080fd5b60006113b98582860161124c565b92505060206113ca85828601611106565b9150509250929050565b6113dd81611644565b82525050565b6113ec81611656565b82525050565b60006113fd82611628565b6114078185611633565b935061141781856020860161169b565b611420816116ce565b840191505092915050565b60006114368261161d565b6114408185611633565b935061145081856020860161169b565b611459816116ce565b840191505092915050565b61146d81611682565b82525050565b600060208201905061148860008301846113d4565b92915050565b60006060820190506114a360008301866113d4565b6114b060208301856113d4565b6114bd6040830184611464565b949350505050565b60006020820190506114da60008301846113e3565b92915050565b600060208201905081810360008301526114fa81846113f2565b905092915050565b6000608082019050818103600083015261151c818761142b565b90508181036020830152611530818661142b565b905061153f60408301856113d4565b61154c60608301846113e3565b95945050505050565b600060208201905061156a6000830184611464565b92915050565b6000604051905081810181811067ffffffffffffffff8211171561159357600080fd5b8060405250919050565b600067ffffffffffffffff8211156115b457600080fd5b602082029050602081019050919050565b600067ffffffffffffffff8211156115dc57600080fd5b601f19601f8301169050602081019050919050565b600067ffffffffffffffff82111561160857600080fd5b601f19601f8301169050602081019050919050565b600081519050919050565b600081519050919050565b600082825260208201905092915050565b600061164f82611662565b9050919050565b60008115159050919050565b600073ffffffffffffffffffffffffffffffffffffffff82169050919050565b6000819050919050565b82818337600083830152505050565b60005b838110156116b957808201518184015260208101905061169e565b838111156116c8576000848401525b50505050565b6000601f19601f8301169050919050565b6116e881611644565b81146116f357600080fd5b50565b6116ff81611656565b811461170a57600080fd5b50565b61171681611682565b811461172157600080fd5b5056fea365627a7a7231582062937d41983d941cb18564dac89d5344d4e30df035b03ac1e4b2eac1b03556d16c6578706572696d656e74616cf564736f6c63430005100040",
  "source": "pragma solidity >=0.4.21 <0.7.0;\n\npragma experimental ABIEncoderV2;\ncontract Record\n{\n    \n      //structure for the user or patient model\n    struct user{\n        string accountname; //user name\n        string password;    //user password\n        address useraddress; //user ethereum address\n        bool set;\n    }\n    uint256 public userCount=0; //number of user or patient registered\n     \n    mapping(address => user)  public userlist;\n   \n    //return the user name by mapping the address\n    function find_user_name(address  _address) public view returns(string memory){      \n      return userlist[_address].accountname;\n    }\n    \n     //return the user name by mapping the address\n    function find_user_password(address  _address) public view returns(string memory){      \n      return userlist[_address].password;\n    }\n   \n   \n   \n    //add user's name, ethereum address and password\n    function addUser(string memory _accountname,string memory _password, address  _useraddress,bool _userset) public{\n        user storage User = userlist[_useraddress];\n        require(!User.set);\n        incrementcount();   //keep count of no. of registered user\n        userlist[_useraddress]=user(_accountname,_password,_useraddress,_userset);\n    }\n    \n \n   \n    //increments every time to keep track of registered user\n     function incrementcount() internal{\n        userCount+=1;\n    }\n    \n    \n    \n        //structure for the doctor\n    struct doctor{\n        string doctorname; //doctor name\n        string password;    //doctor password\n        address doctoraddress; //doctor ethereum address\n      \n        bool set; //to check whether doctor exist\n    }\n    uint256 public recordCount = 0;\n\n    //structure ro store record\n    struct record{\n     address doctor;\n     address patient;\n     uint256 _admissionDate;\n     string[] symptoms;\n    }\n   \n    event HospitalAddition(address hospital);\n   \n    mapping (address => bool) public isHospital;\n    mapping(address => doctor)  public doctorlist;\n    mapping(uint256 => mapping(address => record)) public recordList;\n\n     function addHospital(address _hospital)   public\n\n    {\n        isHospital[_hospital] = true;\n        emit HospitalAddition(_hospital);\n    }\n   \n   \n    function addDoctor(string memory _doctorname,string memory _password, address  _doctoraddress,bool _doctorset) public{\n         doctor storage Doctor = doctorlist[_doctoraddress];\n    // Check that the doctor did not already exist:\n         require(!Doctor.set);\n        doctorlist[_doctoraddress]=doctor(_doctorname,_password,_doctoraddress,_doctorset);\n    }\n   \n    function addRecord(address _patientaddress,address _docaddress,uint256 _addmissiondate,string[] memory _symptomsnames) public{\n     \n        recordList[recordCount][_patientaddress]=record(_docaddress,_patientaddress,_addmissiondate,_symptomsnames);\n        recordCount+=1;\n    }\n    \n    function getDoctorName(address _docaddress)  public view returns(string memory){\n        return doctorlist[_docaddress].doctorname;\n    }\n    function getDoctorPassword(address _docaddress)  public view returns(string memory){\n        return doctorlist[_docaddress].password;\n    }\n   \n}\n",
  "sourcePath": "/home/anusha/Desktop/healthcare/contracts/Record.sol",
  "compiler": {
    "name": "solc",
    "version": "0.5.16+commit.9c3226ce.Emscripten.clang"
  },
  "schemaVersion": "3.0.23",
  "updatedAt": "2020-02-27T03:52:05.314Z",
  "networkType": "ethereum",
  "devdoc": {
    "methods": {}
  },
  "userdoc": {
    "methods": {}
  }
}