{
  "contractName": "Record",
  "abi": [
    {
      "anonymous": false,
      "inputs": [
        {
          "indexed": false,
          "internalType": "address",
          "name": "hospital",
          "type": "address"
        }
      ],
      "name": "HospitalAddition",
      "type": "event"
    },
    {
      "constant": true,
      "inputs": [
        {
          "internalType": "address",
          "name": "",
          "type": "address"
        }
      ],
      "name": "doctorlist",
      "outputs": [
        {
          "internalType": "string",
          "name": "doctorname",
          "type": "string"
        },
        {
          "internalType": "string",
          "name": "password",
          "type": "string"
        },
        {
          "internalType": "address",
          "name": "doctoraddress",
          "type": "address"
        },
        {
          "internalType": "bool",
          "name": "set",
          "type": "bool"
        }
      ],
      "payable": false,
      "stateMutability": "view",
      "type": "function"
    },
    {
      "constant": true,
      "inputs": [
        {
          "internalType": "address",
          "name": "",
          "type": "address"
        }
      ],
      "name": "isHospital",
      "outputs": [
        {
          "internalType": "bool",
          "name": "",
          "type": "bool"
        }
      ],
      "payable": false,
      "stateMutability": "view",
      "type": "function"
    },
    {
      "constant": true,
      "inputs": [],
      "name": "recordCount",
      "outputs": [
        {
          "internalType": "uint256",
          "name": "",
          "type": "uint256"
        }
      ],
      "payable": false,
      "stateMutability": "view",
      "type": "function"
    },
    {
      "constant": true,
      "inputs": [
        {
          "internalType": "address",
          "name": "",
          "type": "address"
        },
        {
          "internalType": "uint256",
          "name": "",
          "type": "uint256"
        }
      ],
      "name": "recordList",
      "outputs": [
        {
          "internalType": "address",
          "name": "doctor",
          "type": "address"
        },
        {
          "internalType": "address",
          "name": "patient",
          "type": "address"
        },
        {
          "internalType": "uint256",
          "name": "admissionDate",
          "type": "uint256"
        }
      ],
      "payable": false,
      "stateMutability": "view",
      "type": "function"
    },
    {
      "constant": true,
      "inputs": [],
      "name": "userCount",
      "outputs": [
        {
          "internalType": "uint256",
          "name": "",
          "type": "uint256"
        }
      ],
      "payable": false,
      "stateMutability": "view",
      "type": "function"
    },
    {
      "constant": true,
      "inputs": [
        {
          "internalType": "address",
          "name": "",
          "type": "address"
        }
      ],
      "name": "userlist",
      "outputs": [
        {
          "internalType": "string",
          "name": "accountname",
          "type": "string"
        },
        {
          "internalType": "string",
          "name": "password",
          "type": "string"
        },
        {
          "internalType": "address",
          "name": "useraddress",
          "type": "address"
        },
        {
          "internalType": "bool",
          "name": "set",
          "type": "bool"
        }
      ],
      "payable": false,
      "stateMutability": "view",
      "type": "function"
    },
    {
      "constant": true,
      "inputs": [
        {
          "internalType": "address",
          "name": "_address",
          "type": "address"
        }
      ],
      "name": "find_user_name",
      "outputs": [
        {
          "internalType": "string",
          "name": "",
          "type": "string"
        }
      ],
      "payable": false,
      "stateMutability": "view",
      "type": "function"
    },
    {
      "constant": true,
      "inputs": [
        {
          "internalType": "address",
          "name": "_address",
          "type": "address"
        }
      ],
      "name": "find_user_password",
      "outputs": [
        {
          "internalType": "string",
          "name": "",
          "type": "string"
        }
      ],
      "payable": false,
      "stateMutability": "view",
      "type": "function"
    },
    {
      "constant": false,
      "inputs": [
        {
          "internalType": "string",
          "name": "_accountname",
          "type": "string"
        },
        {
          "internalType": "string",
          "name": "_password",
          "type": "string"
        },
        {
          "internalType": "address",
          "name": "_useraddress",
          "type": "address"
        },
        {
          "internalType": "bool",
          "name": "_userset",
          "type": "bool"
        }
      ],
      "name": "addUser",
      "outputs": [],
      "payable": false,
      "stateMutability": "nonpayable",
      "type": "function"
    },
    {
      "constant": false,
      "inputs": [
        {
          "internalType": "address",
          "name": "_hospital",
          "type": "address"
        }
      ],
      "name": "addHospital",
      "outputs": [],
      "payable": false,
      "stateMutability": "nonpayable",
      "type": "function"
    },
    {
      "constant": false,
      "inputs": [
        {
          "internalType": "string",
          "name": "_doctorname",
          "type": "string"
        },
        {
          "internalType": "string",
          "name": "_password",
          "type": "string"
        },
        {
          "internalType": "address",
          "name": "_doctoraddress",
          "type": "address"
        },
        {
          "internalType": "bool",
          "name": "_doctorset",
          "type": "bool"
        }
      ],
      "name": "addDoctor",
      "outputs": [],
      "payable": false,
      "stateMutability": "nonpayable",
      "type": "function"
    },
    {
      "constant": false,
      "inputs": [
        {
          "internalType": "address",
          "name": "_patientaddress",
          "type": "address"
        },
        {
          "internalType": "address",
          "name": "_docaddress",
          "type": "address"
        },
        {
          "internalType": "uint256",
          "name": "_addmissiondate",
          "type": "uint256"
        },
        {
          "internalType": "string[]",
          "name": "_symptomsnames",
          "type": "string[]"
        },
        {
          "internalType": "string[]",
          "name": "_medicine",
          "type": "string[]"
        },
        {
          "internalType": "string[]",
          "name": "_disease",
          "type": "string[]"
        }
      ],
      "name": "addRecord",
      "outputs": [],
      "payable": false,
      "stateMutability": "nonpayable",
      "type": "function"
    },
    {
      "constant": true,
      "inputs": [
        {
          "internalType": "address",
          "name": "_patientaddress",
          "type": "address"
        },
        {
          "internalType": "uint256",
          "name": "_recordnum",
          "type": "uint256"
        }
      ],
      "name": "getRecord",
      "outputs": [
        {
          "internalType": "uint256",
          "name": "_admissionDate",
          "type": "uint256"
        },
        {
          "internalType": "string[]",
          "name": "_symptoms",
          "type": "string[]"
        },
        {
          "internalType": "string[]",
          "name": "_disease",
          "type": "string[]"
        },
        {
          "internalType": "string[]",
          "name": "_medicine",
          "type": "string[]"
        }
      ],
      "payable": false,
      "stateMutability": "view",
      "type": "function"
    },
    {
      "constant": true,
      "inputs": [
        {
          "internalType": "address",
          "name": "_docaddress",
          "type": "address"
        }
      ],
      "name": "getDoctorName",
      "outputs": [
        {
          "internalType": "string",
          "name": "",
          "type": "string"
        }
      ],
      "payable": false,
      "stateMutability": "view",
      "type": "function"
    },
    {
      "constant": true,
      "inputs": [
        {
          "internalType": "address",
          "name": "_docaddress",
          "type": "address"
        }
      ],
      "name": "getDoctorPassword",
      "outputs": [
        {
          "internalType": "string",
          "name": "",
          "type": "string"
        }
      ],
      "payable": false,
      "stateMutability": "view",
      "type": "function"
    }
  ],
  "bytecode": "0x608060405260008055600060025534801561001957600080fd5b50611dae806100296000396000f3fe608060405234801561001057600080fd5b50600436106100f45760003560e01c806389db603e11610097578063c32c869b11610066578063c32c869b146102ab578063c444e19e146102c7578063cdb8acf0146102fa578063e69465cd1461032d576100f4565b806389db603e14610225578063900407bc146102415780639657b1a11461025f578063bdf6c6731461027b576100f4565b80631b470bc7116100d35780631b470bc7146101795780636222c0cf146101955780636294851c146101c5578063847b7758146101f5576100f4565b8062c12c6c146100f957806307973ccf1461012957806314b60ee714610147575b600080fd5b610113600480360361010e91908101906116ec565b610360565b6040516101209190611a83565b60405180910390f35b610131610444565b60405161013e9190611af8565b60405180910390f35b610161600480360361015c91908101906117e6565b61044a565b60405161017093929190611a31565b60405180910390f35b610193600480360361018e91908101906116ec565b6104c1565b005b6101af60048036036101aa91908101906116ec565b610553565b6040516101bc9190611a83565b60405180910390f35b6101df60048036036101da91908101906116ec565b610637565b6040516101ec9190611a83565b60405180910390f35b61020f600480360361020a91908101906116ec565b61071b565b60405161021c9190611a83565b60405180910390f35b61023f600480360361023a9190810190611822565b6107ff565b005b610249610981565b6040516102569190611af8565b60405180910390f35b61027960048036036102749190810190611715565b610987565b005b610295600480360361029091908101906116ec565b610b3d565b6040516102a29190611a68565b60405180910390f35b6102c560048036036102c09190810190611822565b610b5d565b005b6102e160048036036102dc91908101906116ec565b610ce7565b6040516102f19493929190611aa5565b60405180910390f35b610314600480360361030f91908101906117e6565b610e74565b6040516103249493929190611b13565b60405180910390f35b610347600480360361034291908101906116ec565b611279565b6040516103579493929190611aa5565b60405180910390f35b6060600160008373ffffffffffffffffffffffffffffffffffffffff1673ffffffffffffffffffffffffffffffffffffffff1681526020019081526020016000206001018054600181600116156101000203166002900480601f0160208091040260200160405190810160405280929190818152602001828054600181600116156101000203166002900480156104385780601f1061040d57610100808354040283529160200191610438565b820191906000526020600020905b81548152906001019060200180831161041b57829003601f168201915b50505050509050919050565b60005481565b6005602052816000526040600020602052806000526040600020600091509150508060000160009054906101000a900473ffffffffffffffffffffffffffffffffffffffff16908060010160009054906101000a900473ffffffffffffffffffffffffffffffffffffffff16908060020154905083565b6001600360008373ffffffffffffffffffffffffffffffffffffffff1673ffffffffffffffffffffffffffffffffffffffff16815260200190815260200160002060006101000a81548160ff0219169083151502179055507f287ab756b8d47062a978ed6e40674fb341af71a7b67a1c47d68c41816e77f710816040516105489190611a16565b60405180910390a150565b6060600160008373ffffffffffffffffffffffffffffffffffffffff1673ffffffffffffffffffffffffffffffffffffffff1681526020019081526020016000206000018054600181600116156101000203166002900480601f01602080910402602001604051908101604052809291908181526020018280546001816001161561010002031660029004801561062b5780601f106106005761010080835404028352916020019161062b565b820191906000526020600020905b81548152906001019060200180831161060e57829003601f168201915b50505050509050919050565b6060600460008373ffffffffffffffffffffffffffffffffffffffff1673ffffffffffffffffffffffffffffffffffffffff1681526020019081526020016000206001018054600181600116156101000203166002900480601f01602080910402602001604051908101604052809291908181526020018280546001816001161561010002031660029004801561070f5780601f106106e45761010080835404028352916020019161070f565b820191906000526020600020905b8154815290600101906020018083116106f257829003601f168201915b50505050509050919050565b6060600460008373ffffffffffffffffffffffffffffffffffffffff1673ffffffffffffffffffffffffffffffffffffffff1681526020019081526020016000206000018054600181600116156101000203166002900480601f0160208091040260200160405190810160405280929190818152602001828054600181600116156101000203166002900480156107f35780601f106107c8576101008083540402835291602001916107f3565b820191906000526020600020905b8154815290600101906020018083116107d657829003601f168201915b50505050509050919050565b6000600460008473ffffffffffffffffffffffffffffffffffffffff1673ffffffffffffffffffffffffffffffffffffffff16815260200190815260200160002090508060020160149054906101000a900460ff161561085e57600080fd5b60405180608001604052808681526020018581526020018473ffffffffffffffffffffffffffffffffffffffff168152602001831515815250600460008573ffffffffffffffffffffffffffffffffffffffff1673ffffffffffffffffffffffffffffffffffffffff16815260200190815260200160002060008201518160000190805190602001906108f2929190611418565b50602082015181600101908051906020019061090f929190611418565b5060408201518160020160006101000a81548173ffffffffffffffffffffffffffffffffffffffff021916908373ffffffffffffffffffffffffffffffffffffffff16021790555060608201518160020160146101000a81548160ff0219169083151502179055509050505050505050565b60025481565b6040518060c001604052808673ffffffffffffffffffffffffffffffffffffffff1681526020018773ffffffffffffffffffffffffffffffffffffffff16815260200185815260200184815260200182815260200183815250600560008873ffffffffffffffffffffffffffffffffffffffff1673ffffffffffffffffffffffffffffffffffffffff1681526020019081526020016000206000600254815260200190815260200160002060008201518160000160006101000a81548173ffffffffffffffffffffffffffffffffffffffff021916908373ffffffffffffffffffffffffffffffffffffffff16021790555060208201518160010160006101000a81548173ffffffffffffffffffffffffffffffffffffffff021916908373ffffffffffffffffffffffffffffffffffffffff160217905550604082015181600201556060820151816003019080519060200190610ae6929190611498565b506080820151816004019080519060200190610b03929190611498565b5060a0820151816005019080519060200190610b20929190611498565b509050506001600260008282540192505081905550505050505050565b60036020528060005260406000206000915054906101000a900460ff1681565b6000600160008473ffffffffffffffffffffffffffffffffffffffff1673ffffffffffffffffffffffffffffffffffffffff16815260200190815260200160002090508060020160149054906101000a900460ff1615610bbc57600080fd5b610bc4611406565b60405180608001604052808681526020018581526020018473ffffffffffffffffffffffffffffffffffffffff168152602001831515815250600160008573ffffffffffffffffffffffffffffffffffffffff1673ffffffffffffffffffffffffffffffffffffffff1681526020019081526020016000206000820151816000019080519060200190610c58929190611418565b506020820151816001019080519060200190610c75929190611418565b5060408201518160020160006101000a81548173ffffffffffffffffffffffffffffffffffffffff021916908373ffffffffffffffffffffffffffffffffffffffff16021790555060608201518160020160146101000a81548160ff0219169083151502179055509050505050505050565b6001602052806000526040600020600091509050806000018054600181600116156101000203166002900480601f016020809104026020016040519081016040528092919081815260200182805460018160011615610100020316600290048015610d935780601f10610d6857610100808354040283529160200191610d93565b820191906000526020600020905b815481529060010190602001808311610d7657829003601f168201915b505050505090806001018054600181600116156101000203166002900480601f016020809104026020016040519081016040528092919081815260200182805460018160011615610100020316600290048015610e315780601f10610e0657610100808354040283529160200191610e31565b820191906000526020600020905b815481529060010190602001808311610e1457829003601f168201915b5050505050908060020160009054906101000a900473ffffffffffffffffffffffffffffffffffffffff16908060020160149054906101000a900460ff16905084565b60006060806060600560008773ffffffffffffffffffffffffffffffffffffffff1673ffffffffffffffffffffffffffffffffffffffff1681526020019081526020016000206000868152602001908152602001600020600501805480602002602001604051908101604052809291908181526020016000905b82821015610faa578382906000526020600020018054600181600116156101000203166002900480601f016020809104026020016040519081016040528092919081815260200182805460018160011615610100020316600290048015610f965780601f10610f6b57610100808354040283529160200191610f96565b820191906000526020600020905b815481529060010190602001808311610f7957829003601f168201915b505050505081526020019060010190610eee565b505050509050600560008773ffffffffffffffffffffffffffffffffffffffff1673ffffffffffffffffffffffffffffffffffffffff1681526020019081526020016000206000868152602001908152602001600020600301805480602002602001604051908101604052809291908181526020016000905b828210156110df578382906000526020600020018054600181600116156101000203166002900480601f0160208091040260200160405190810160405280929190818152602001828054600181600116156101000203166002900480156110cb5780601f106110a0576101008083540402835291602001916110cb565b820191906000526020600020905b8154815290600101906020018083116110ae57829003601f168201915b505050505081526020019060010190611023565b505050509250600560008773ffffffffffffffffffffffffffffffffffffffff1673ffffffffffffffffffffffffffffffffffffffff1681526020019081526020016000206000868152602001908152602001600020600401805480602002602001604051908101604052809291908181526020016000905b82821015611214578382906000526020600020018054600181600116156101000203166002900480601f0160208091040260200160405190810160405280929190818152602001828054600181600116156101000203166002900480156112005780601f106111d557610100808354040283529160200191611200565b820191906000526020600020905b8154815290600101906020018083116111e357829003601f168201915b505050505081526020019060010190611158565b505050509150600560008773ffffffffffffffffffffffffffffffffffffffff1673ffffffffffffffffffffffffffffffffffffffff168152602001908152602001600020600086815260200190815260200160002060020154935092959194509250565b6004602052806000526040600020600091509050806000018054600181600116156101000203166002900480601f0160208091040260200160405190810160405280929190818152602001828054600181600116156101000203166002900480156113255780601f106112fa57610100808354040283529160200191611325565b820191906000526020600020905b81548152906001019060200180831161130857829003601f168201915b505050505090806001018054600181600116156101000203166002900480601f0160208091040260200160405190810160405280929190818152602001828054600181600116156101000203166002900480156113c35780601f10611398576101008083540402835291602001916113c3565b820191906000526020600020905b8154815290600101906020018083116113a657829003601f168201915b5050505050908060020160009054906101000a900473ffffffffffffffffffffffffffffffffffffffff16908060020160149054906101000a900460ff16905084565b60016000808282540192505081905550565b828054600181600116156101000203166002900490600052602060002090601f016020900481019282601f1061145957805160ff1916838001178555611487565b82800160010185558215611487579182015b8281111561148657825182559160200191906001019061146b565b5b50905061149491906114f8565b5090565b8280548282559060005260206000209081019282156114e7579160200282015b828111156114e65782518290805190602001906114d6929190611418565b50916020019190600101906114b8565b5b5090506114f4919061151d565b5090565b61151a91905b808211156115165760008160009055506001016114fe565b5090565b90565b61154691905b8082111561154257600081816115399190611549565b50600101611523565b5090565b90565b50805460018160011615610100020316600290046000825580601f1061156f575061158e565b601f01602090049060005260206000209081019061158d91906114f8565b5b50565b6000813590506115a081611d26565b92915050565b600082601f8301126115b757600080fd5b81356115ca6115c582611b9a565b611b6d565b9150818183526020840193506020810190508360005b8381101561161057813586016115f6888261162f565b8452602084019350602083019250506001810190506115e0565b5050505092915050565b60008135905061162981611d3d565b92915050565b600082601f83011261164057600080fd5b813561165361164e82611bc2565b611b6d565b9150808252602083016020830185838301111561166f57600080fd5b61167a838284611cd3565b50505092915050565b600082601f83011261169457600080fd5b81356116a76116a282611bee565b611b6d565b915080825260208301602083018583830111156116c357600080fd5b6116ce838284611cd3565b50505092915050565b6000813590506116e681611d54565b92915050565b6000602082840312156116fe57600080fd5b600061170c84828501611591565b91505092915050565b60008060008060008060c0878903121561172e57600080fd5b600061173c89828a01611591565b965050602061174d89828a01611591565b955050604061175e89828a016116d7565b945050606087013567ffffffffffffffff81111561177b57600080fd5b61178789828a016115a6565b935050608087013567ffffffffffffffff8111156117a457600080fd5b6117b089828a016115a6565b92505060a087013567ffffffffffffffff8111156117cd57600080fd5b6117d989828a016115a6565b9150509295509295509295565b600080604083850312156117f957600080fd5b600061180785828601611591565b9250506020611818858286016116d7565b9150509250929050565b6000806000806080858703121561183857600080fd5b600085013567ffffffffffffffff81111561185257600080fd5b61185e87828801611683565b945050602085013567ffffffffffffffff81111561187b57600080fd5b61188787828801611683565b935050604061189887828801611591565b92505060606118a98782880161161a565b91505092959194509250565b60006118c18383611995565b905092915050565b6118d281611c8b565b82525050565b60006118e382611c2a565b6118ed8185611c58565b9350836020820285016118ff85611c1a565b8060005b8581101561193b578484038952815161191c85826118b5565b945061192783611c4b565b925060208a01995050600181019050611903565b50829750879550505050505092915050565b61195681611c9d565b82525050565b600061196782611c40565b6119718185611c7a565b9350611981818560208601611ce2565b61198a81611d15565b840191505092915050565b60006119a082611c35565b6119aa8185611c69565b93506119ba818560208601611ce2565b6119c381611d15565b840191505092915050565b60006119d982611c35565b6119e38185611c7a565b93506119f3818560208601611ce2565b6119fc81611d15565b840191505092915050565b611a1081611cc9565b82525050565b6000602082019050611a2b60008301846118c9565b92915050565b6000606082019050611a4660008301866118c9565b611a5360208301856118c9565b611a606040830184611a07565b949350505050565b6000602082019050611a7d600083018461194d565b92915050565b60006020820190508181036000830152611a9d818461195c565b905092915050565b60006080820190508181036000830152611abf81876119ce565b90508181036020830152611ad381866119ce565b9050611ae260408301856118c9565b611aef606083018461194d565b95945050505050565b6000602082019050611b0d6000830184611a07565b92915050565b6000608082019050611b286000830187611a07565b8181036020830152611b3a81866118d8565b90508181036040830152611b4e81856118d8565b90508181036060830152611b6281846118d8565b905095945050505050565b6000604051905081810181811067ffffffffffffffff82111715611b9057600080fd5b8060405250919050565b600067ffffffffffffffff821115611bb157600080fd5b602082029050602081019050919050565b600067ffffffffffffffff821115611bd957600080fd5b601f19601f8301169050602081019050919050565b600067ffffffffffffffff821115611c0557600080fd5b601f19601f8301169050602081019050919050565b6000819050602082019050919050565b600081519050919050565b600081519050919050565b600081519050919050565b6000602082019050919050565b600082825260208201905092915050565b600082825260208201905092915050565b600082825260208201905092915050565b6000611c9682611ca9565b9050919050565b60008115159050919050565b600073ffffffffffffffffffffffffffffffffffffffff82169050919050565b6000819050919050565b82818337600083830152505050565b60005b83811015611d00578082015181840152602081019050611ce5565b83811115611d0f576000848401525b50505050565b6000601f19601f8301169050919050565b611d2f81611c8b565b8114611d3a57600080fd5b50565b611d4681611c9d565b8114611d5157600080fd5b50565b611d5d81611cc9565b8114611d6857600080fd5b5056fea365627a7a72315820aef2cb82502251680b568e295b9c33052980e24ffee3e46c01517140fc74322a6c6578706572696d656e74616cf564736f6c63430005100040",
  "source": "pragma solidity >=0.4.21 <0.7.0;\npragma experimental ABIEncoderV2;\ncontract Record\n{\n    \n      //structure for the user or patient model\n    struct user{\n        string accountname; //user name\n        string password;    //user password\n        address useraddress; //user ethereum address\n        bool set;\n    }\n    uint256 public userCount=0; //number of user or patient registered\n     \n    mapping(address => user)  public userlist;\n   \n    //return the user name by mapping the address\n    function find_user_name(address  _address) public view returns(string memory){      \n      return userlist[_address].accountname;\n    }\n    \n     //return the user name by mapping the address\n    function find_user_password(address  _address) public view returns(string memory){      \n      return userlist[_address].password;\n    }\n   \n   \n   \n    //add user's name, ethereum address and password\n    function addUser(string memory _accountname,string memory _password, address  _useraddress,bool _userset) public{\n        user storage User = userlist[_useraddress];\n        require(!User.set);\n        incrementcount();   //keep count of no. of registered user\n        userlist[_useraddress]=user(_accountname,_password,_useraddress,_userset);\n    }\n    \n \n   \n    //increments every time to keep track of registered user\n     function incrementcount() internal{\n        userCount+=1;\n    }\n    \n    \n    \n        //structure for the doctor\n    struct doctor{\n        string doctorname; //doctor name\n        string password;    //doctor password\n        address doctoraddress; //doctor ethereum address\n      \n        bool set; //to check whether doctor exist\n    }\n    uint256 public recordCount = 0;\n\n    //structure ro store record\n    struct record{\n     address doctor;\n     address patient;\n     uint256 admissionDate;\n     string[] symptoms;\n     string[] disease;\n     string[] medicine;\n    }\n   \n    event HospitalAddition(address hospital);\n   \n    mapping (address => bool) public isHospital;\n    mapping(address => doctor)  public doctorlist;\n    mapping(address => mapping(uint256 => record)) public recordList;\n\n     function addHospital(address _hospital)   public\n\n    {\n        isHospital[_hospital] = true;\n        emit HospitalAddition(_hospital);\n    }\n   \n   \n    function addDoctor(string memory _doctorname,string memory _password, address  _doctoraddress,bool _doctorset) public{\n         doctor storage Doctor = doctorlist[_doctoraddress];\n    // Check that the doctor did not already exist:\n         require(!Doctor.set);\n        doctorlist[_doctoraddress]=doctor(_doctorname,_password,_doctoraddress,_doctorset);\n    }\n   \n    function addRecord(address _patientaddress,address _docaddress,uint256 _addmissiondate,string[] memory _symptomsnames,string[] memory _medicine,string[] memory _disease) public{\n     \n        recordList[_patientaddress][recordCount]=record(_docaddress,_patientaddress,_addmissiondate,_symptomsnames,_disease,_medicine);\n        recordCount+=1;\n    }\n    function getRecord(address _patientaddress,uint256 _recordnum) public view returns(\n     \n     uint256 _admissionDate,\n     string[] memory _symptoms,\n     string[] memory _disease,\n     string[] memory _medicine){\n       _medicine= recordList[_patientaddress][_recordnum].medicine;\n       _symptoms=recordList[_patientaddress][_recordnum].symptoms;\n       _disease=recordList[_patientaddress][_recordnum].disease;\n       _admissionDate=recordList[_patientaddress][_recordnum].admissionDate;\n    }\n    \n    function getDoctorName(address _docaddress)  public view returns(string memory){\n        return doctorlist[_docaddress].doctorname;\n    }\n    function getDoctorPassword(address _docaddress)  public view returns(string memory){\n        return doctorlist[_docaddress].password;\n    }\n   \n}\n",
  "sourcePath": "/home/anusha/Desktop/healthcare/contracts/Record.sol",
  "compiler": {
    "name": "solc",
    "version": "0.5.16+commit.9c3226ce.Emscripten.clang"
  },
  "schemaVersion": "3.0.23",
  "updatedAt": "2020-02-28T04:35:00.792Z",
  "devdoc": {
    "methods": {}
  },
  "userdoc": {
    "methods": {}
  }
}