{
  "contractName": "Record",
  "abi": [
    {
      "anonymous": false,
      "inputs": [
        {
          "indexed": false,
          "internalType": "address",
          "name": "hospital",
          "type": "address"
        }
      ],
      "name": "HospitalAddition",
      "type": "event"
    },
    {
      "constant": true,
      "inputs": [
        {
          "internalType": "address",
          "name": "",
          "type": "address"
        }
      ],
      "name": "doctorlist",
      "outputs": [
        {
          "internalType": "string",
          "name": "doctorname",
          "type": "string"
        },
        {
          "internalType": "string",
          "name": "password",
          "type": "string"
        },
        {
          "internalType": "address",
          "name": "doctoraddress",
          "type": "address"
        },
        {
          "internalType": "bool",
          "name": "set",
          "type": "bool"
        }
      ],
      "payable": false,
      "stateMutability": "view",
      "type": "function"
    },
    {
      "constant": true,
      "inputs": [
        {
          "internalType": "address",
          "name": "",
          "type": "address"
        }
      ],
      "name": "isHospital",
      "outputs": [
        {
          "internalType": "bool",
          "name": "",
          "type": "bool"
        }
      ],
      "payable": false,
      "stateMutability": "view",
      "type": "function"
    },
    {
      "constant": true,
      "inputs": [],
      "name": "userCount",
      "outputs": [
        {
          "internalType": "uint256",
          "name": "",
          "type": "uint256"
        }
      ],
      "payable": false,
      "stateMutability": "view",
      "type": "function"
    },
    {
      "constant": true,
      "inputs": [
        {
          "internalType": "address",
          "name": "",
          "type": "address"
        }
      ],
      "name": "userlist",
      "outputs": [
        {
          "internalType": "uint256",
          "name": "patid",
          "type": "uint256"
        },
        {
          "internalType": "string",
          "name": "accountname",
          "type": "string"
        },
        {
          "internalType": "string",
          "name": "password",
          "type": "string"
        },
        {
          "internalType": "address",
          "name": "useraddress",
          "type": "address"
        },
        {
          "internalType": "bool",
          "name": "set",
          "type": "bool"
        }
      ],
      "payable": false,
      "stateMutability": "view",
      "type": "function"
    },
    {
      "constant": true,
      "inputs": [
        {
          "internalType": "address",
          "name": "_address",
          "type": "address"
        }
      ],
      "name": "find_user_name",
      "outputs": [
        {
          "internalType": "string",
          "name": "",
          "type": "string"
        }
      ],
      "payable": false,
      "stateMutability": "view",
      "type": "function"
    },
    {
      "constant": true,
      "inputs": [
        {
          "internalType": "address",
          "name": "_address",
          "type": "address"
        }
      ],
      "name": "find_user_password",
      "outputs": [
        {
          "internalType": "string",
          "name": "",
          "type": "string"
        }
      ],
      "payable": false,
      "stateMutability": "view",
      "type": "function"
    },
    {
      "constant": false,
      "inputs": [
        {
          "internalType": "string",
          "name": "_accountname",
          "type": "string"
        },
        {
          "internalType": "string",
          "name": "_password",
          "type": "string"
        },
        {
          "internalType": "address",
          "name": "_useraddress",
          "type": "address"
        },
        {
          "internalType": "bool",
          "name": "_userset",
          "type": "bool"
        }
      ],
      "name": "addUser",
      "outputs": [],
      "payable": false,
      "stateMutability": "nonpayable",
      "type": "function"
    },
    {
      "constant": false,
      "inputs": [],
      "name": "incrementcount",
      "outputs": [
        {
          "internalType": "uint256",
          "name": "",
          "type": "uint256"
        }
      ],
      "payable": false,
      "stateMutability": "nonpayable",
      "type": "function"
    },
    {
      "constant": false,
      "inputs": [
        {
          "internalType": "address",
          "name": "_hospital",
          "type": "address"
        }
      ],
      "name": "addHospital",
      "outputs": [],
      "payable": false,
      "stateMutability": "nonpayable",
      "type": "function"
    },
    {
      "constant": false,
      "inputs": [
        {
          "internalType": "string",
          "name": "_doctorname",
          "type": "string"
        },
        {
          "internalType": "string",
          "name": "_password",
          "type": "string"
        },
        {
          "internalType": "address",
          "name": "_doctoraddress",
          "type": "address"
        },
        {
          "internalType": "bool",
          "name": "_doctorset",
          "type": "bool"
        }
      ],
      "name": "addDoctor",
      "outputs": [],
      "payable": false,
      "stateMutability": "nonpayable",
      "type": "function"
    },
    {
      "constant": false,
      "inputs": [
        {
          "internalType": "address",
          "name": "_patientaddress",
          "type": "address"
        },
        {
          "internalType": "string",
          "name": "_recordhash",
          "type": "string"
        }
      ],
      "name": "addRecord",
      "outputs": [],
      "payable": false,
      "stateMutability": "nonpayable",
      "type": "function"
    },
    {
      "constant": true,
      "inputs": [
        {
          "internalType": "address",
          "name": "_patientaddress",
          "type": "address"
        }
      ],
      "name": "getRecord",
      "outputs": [
        {
          "internalType": "string[]",
          "name": "",
          "type": "string[]"
        }
      ],
      "payable": false,
      "stateMutability": "view",
      "type": "function"
    },
    {
      "constant": true,
      "inputs": [
        {
          "internalType": "address",
          "name": "_docaddress",
          "type": "address"
        }
      ],
      "name": "getDoctorName",
      "outputs": [
        {
          "internalType": "string",
          "name": "",
          "type": "string"
        }
      ],
      "payable": false,
      "stateMutability": "view",
      "type": "function"
    },
    {
      "constant": true,
      "inputs": [
        {
          "internalType": "address",
          "name": "_docaddress",
          "type": "address"
        }
      ],
      "name": "getDoctorPassword",
      "outputs": [
        {
          "internalType": "string",
          "name": "",
          "type": "string"
        }
      ],
      "payable": false,
      "stateMutability": "view",
      "type": "function"
    },
    {
      "constant": true,
      "inputs": [
        {
          "internalType": "address",
          "name": "_patientaddress",
          "type": "address"
        }
      ],
      "name": "getId",
      "outputs": [
        {
          "internalType": "uint256",
          "name": "",
          "type": "uint256"
        }
      ],
      "payable": false,
      "stateMutability": "view",
      "type": "function"
    },
    {
      "constant": true,
      "inputs": [
        {
          "internalType": "uint256",
          "name": "_num",
          "type": "uint256"
        }
      ],
      "name": "getRecordCountPatient",
      "outputs": [
        {
          "internalType": "uint256",
          "name": "",
          "type": "uint256"
        }
      ],
      "payable": false,
      "stateMutability": "view",
      "type": "function"
    }
  ],
  "bytecode": "0x60806040526000805534801561001457600080fd5b506118ab806100246000396000f3fe608060405234801561001057600080fd5b50600436106100ff5760003560e01c8063847b775811610097578063c32c869b11610066578063c32c869b146102e4578063c444e19e14610300578063e3a14c9214610334578063e69465cd14610364576100ff565b8063847b77581461024a57806389db603e1461027a578063a15ec53114610296578063bdf6c673146102b4576100ff565b80636222c0cf116100d35780636222c0cf1461019e5780636294851c146101ce57806365f68c89146101fe57806366858ec81461022e576100ff565b8062c12c6c1461010457806307973ccf146101345780631b470bc714610152578063617fba041461016e575b600080fd5b61011e600480360361011991908101906112db565b610397565b60405161012b91906115cd565b60405180910390f35b61013c61047b565b6040516101499190611642565b60405180910390f35b61016c600480360361016791908101906112db565b610481565b005b610188600480360361018391908101906112db565b610513565b6040516101959190611590565b60405180910390f35b6101b860048036036101b391908101906112db565b610699565b6040516101c591906115cd565b60405180910390f35b6101e860048036036101e391908101906112db565b61077d565b6040516101f591906115cd565b60405180910390f35b610218600480360361021391908101906112db565b610861565b6040516102259190611642565b60405180910390f35b61024860048036036102439190810190611304565b6108ad565b005b610264600480360361025f91908101906112db565b6109f4565b60405161027191906115cd565b60405180910390f35b610294600480360361028f9190810190611358565b610ad8565b005b61029e610c5a565b6040516102ab9190611642565b60405180910390f35b6102ce60048036036102c991908101906112db565b610c70565b6040516102db91906115b2565b60405180910390f35b6102fe60048036036102f99190810190611358565b610c90565b005b61031a600480360361031591908101906112db565b610e62565b60405161032b95949392919061165d565b60405180910390f35b61034e600480360361034991908101906113eb565b610ff5565b60405161035b9190611642565b60405180910390f35b61037e600480360361037991908101906112db565b611016565b60405161038e94939291906115ef565b60405180910390f35b6060600160008373ffffffffffffffffffffffffffffffffffffffff1673ffffffffffffffffffffffffffffffffffffffff1681526020019081526020016000206002018054600181600116156101000203166002900480601f01602080910402602001604051908101604052809291908181526020018280546001816001161561010002031660029004801561046f5780601f106104445761010080835404028352916020019161046f565b820191906000526020600020905b81548152906001019060200180831161045257829003601f168201915b50505050509050919050565b60005481565b6001600360008373ffffffffffffffffffffffffffffffffffffffff1673ffffffffffffffffffffffffffffffffffffffff16815260200190815260200160002060006101000a81548160ff0219169083151502179055507f287ab756b8d47062a978ed6e40674fb341af71a7b67a1c47d68c41816e77f710816040516105089190611575565b60405180910390a150565b6060600061052083610861565b9050600061052d82610ff5565b905060018101905060608160405190808252806020026020018201604052801561056b57816020015b60608152602001906001900390816105565790505b5090506000600190505b8281101561068d57600560008773ffffffffffffffffffffffffffffffffffffffff1673ffffffffffffffffffffffffffffffffffffffff16815260200190815260200160002060008281526020019081526020016000206001018054600181600116156101000203166002900480601f0160208091040260200160405190810160405280929190818152602001828054600181600116156101000203166002900480156106645780601f1061063957610100808354040283529160200191610664565b820191906000526020600020905b81548152906001019060200180831161064757829003601f168201915b505050505082828151811061067557fe5b60200260200101819052508080600101915050610575565b50809350505050919050565b6060600160008373ffffffffffffffffffffffffffffffffffffffff1673ffffffffffffffffffffffffffffffffffffffff1681526020019081526020016000206001018054600181600116156101000203166002900480601f0160208091040260200160405190810160405280929190818152602001828054600181600116156101000203166002900480156107715780601f1061074657610100808354040283529160200191610771565b820191906000526020600020905b81548152906001019060200180831161075457829003601f168201915b50505050509050919050565b6060600460008373ffffffffffffffffffffffffffffffffffffffff1673ffffffffffffffffffffffffffffffffffffffff1681526020019081526020016000206001018054600181600116156101000203166002900480601f0160208091040260200160405190810160405280929190818152602001828054600181600116156101000203166002900480156108555780601f1061082a57610100808354040283529160200191610855565b820191906000526020600020905b81548152906001019060200180831161083857829003601f168201915b50505050509050919050565b6000600160008373ffffffffffffffffffffffffffffffffffffffff1673ffffffffffffffffffffffffffffffffffffffff168152602001908152602001600020600001549050919050565b60006108b883610861565b90506001600282815481106108c957fe5b906000526020600020015401600282815481106108e257fe5b90600052602060002001819055506000600282815481106108ff57fe5b9060005260206000200154905060405180604001604052808573ffffffffffffffffffffffffffffffffffffffff16815260200184815250600560008673ffffffffffffffffffffffffffffffffffffffff1673ffffffffffffffffffffffffffffffffffffffff168152602001908152602001600020600083815260200190815260200160002060008201518160000160006101000a81548173ffffffffffffffffffffffffffffffffffffffff021916908373ffffffffffffffffffffffffffffffffffffffff16021790555060208201518160010190805190602001906109ea9291906111a3565b5090505050505050565b6060600460008373ffffffffffffffffffffffffffffffffffffffff1673ffffffffffffffffffffffffffffffffffffffff1681526020019081526020016000206000018054600181600116156101000203166002900480601f016020809104026020016040519081016040528092919081815260200182805460018160011615610100020316600290048015610acc5780601f10610aa157610100808354040283529160200191610acc565b820191906000526020600020905b815481529060010190602001808311610aaf57829003601f168201915b50505050509050919050565b6000600460008473ffffffffffffffffffffffffffffffffffffffff1673ffffffffffffffffffffffffffffffffffffffff16815260200190815260200160002090508060020160149054906101000a900460ff1615610b3757600080fd5b60405180608001604052808681526020018581526020018473ffffffffffffffffffffffffffffffffffffffff168152602001831515815250600460008573ffffffffffffffffffffffffffffffffffffffff1673ffffffffffffffffffffffffffffffffffffffff1681526020019081526020016000206000820151816000019080519060200190610bcb9291906111a3565b506020820151816001019080519060200190610be89291906111a3565b5060408201518160020160006101000a81548173ffffffffffffffffffffffffffffffffffffffff021916908373ffffffffffffffffffffffffffffffffffffffff16021790555060608201518160020160146101000a81548160ff0219169083151502179055509050505050505050565b6000600160008082825401925050819055905090565b60036020528060005260406000206000915054906101000a900460ff1681565b6000600160008473ffffffffffffffffffffffffffffffffffffffff1673ffffffffffffffffffffffffffffffffffffffff16815260200190815260200160002090508060030160149054906101000a900460ff1615610cef57600080fd5b6000610cf9610c5a565b90506001810390506040518060a001604052808281526020018781526020018681526020018573ffffffffffffffffffffffffffffffffffffffff168152602001841515815250600160008673ffffffffffffffffffffffffffffffffffffffff1673ffffffffffffffffffffffffffffffffffffffff168152602001908152602001600020600082015181600001556020820151816001019080519060200190610da59291906111a3565b506040820151816002019080519060200190610dc29291906111a3565b5060608201518160030160006101000a81548173ffffffffffffffffffffffffffffffffffffffff021916908373ffffffffffffffffffffffffffffffffffffffff16021790555060808201518160030160146101000a81548160ff021916908315150217905550905050600260009080600181540180825580915050906001820390600052602060002001600090919290919091505550505050505050565b6001602052806000526040600020600091509050806000015490806001018054600181600116156101000203166002900480601f016020809104026020016040519081016040528092919081815260200182805460018160011615610100020316600290048015610f145780601f10610ee957610100808354040283529160200191610f14565b820191906000526020600020905b815481529060010190602001808311610ef757829003601f168201915b505050505090806002018054600181600116156101000203166002900480601f016020809104026020016040519081016040528092919081815260200182805460018160011615610100020316600290048015610fb25780601f10610f8757610100808354040283529160200191610fb2565b820191906000526020600020905b815481529060010190602001808311610f9557829003601f168201915b5050505050908060030160009054906101000a900473ffffffffffffffffffffffffffffffffffffffff16908060030160149054906101000a900460ff16905085565b60006002828154811061100457fe5b90600052602060002001549050919050565b6004602052806000526040600020600091509050806000018054600181600116156101000203166002900480601f0160208091040260200160405190810160405280929190818152602001828054600181600116156101000203166002900480156110c25780601f10611097576101008083540402835291602001916110c2565b820191906000526020600020905b8154815290600101906020018083116110a557829003601f168201915b505050505090806001018054600181600116156101000203166002900480601f0160208091040260200160405190810160405280929190818152602001828054600181600116156101000203166002900480156111605780601f1061113557610100808354040283529160200191611160565b820191906000526020600020905b81548152906001019060200180831161114357829003601f168201915b5050505050908060020160009054906101000a900473ffffffffffffffffffffffffffffffffffffffff16908060020160149054906101000a900460ff16905084565b828054600181600116156101000203166002900490600052602060002090601f016020900481019282601f106111e457805160ff1916838001178555611212565b82800160010185558215611212579182015b828111156112115782518255916020019190600101906111f6565b5b50905061121f9190611223565b5090565b61124591905b80821115611241576000816000905550600101611229565b5090565b90565b60008135905061125781611823565b92915050565b60008135905061126c8161183a565b92915050565b600082601f83011261128357600080fd5b8135611296611291826116eb565b6116be565b915080825260208301602083018583830111156112b257600080fd5b6112bd8382846117d0565b50505092915050565b6000813590506112d581611851565b92915050565b6000602082840312156112ed57600080fd5b60006112fb84828501611248565b91505092915050565b6000806040838503121561131757600080fd5b600061132585828601611248565b925050602083013567ffffffffffffffff81111561134257600080fd5b61134e85828601611272565b9150509250929050565b6000806000806080858703121561136e57600080fd5b600085013567ffffffffffffffff81111561138857600080fd5b61139487828801611272565b945050602085013567ffffffffffffffff8111156113b157600080fd5b6113bd87828801611272565b93505060406113ce87828801611248565b92505060606113df8782880161125d565b91505092959194509250565b6000602082840312156113fd57600080fd5b600061140b848285016112c6565b91505092915050565b600061142083836114f4565b905092915050565b61143181611788565b82525050565b600061144282611727565b61144c8185611755565b93508360208202850161145e85611717565b8060005b8581101561149a578484038952815161147b8582611414565b945061148683611748565b925060208a01995050600181019050611462565b50829750879550505050505092915050565b6114b58161179a565b82525050565b60006114c68261173d565b6114d08185611777565b93506114e08185602086016117df565b6114e981611812565b840191505092915050565b60006114ff82611732565b6115098185611766565b93506115198185602086016117df565b61152281611812565b840191505092915050565b600061153882611732565b6115428185611777565b93506115528185602086016117df565b61155b81611812565b840191505092915050565b61156f816117c6565b82525050565b600060208201905061158a6000830184611428565b92915050565b600060208201905081810360008301526115aa8184611437565b905092915050565b60006020820190506115c760008301846114ac565b92915050565b600060208201905081810360008301526115e781846114bb565b905092915050565b60006080820190508181036000830152611609818761152d565b9050818103602083015261161d818661152d565b905061162c6040830185611428565b61163960608301846114ac565b95945050505050565b60006020820190506116576000830184611566565b92915050565b600060a0820190506116726000830188611566565b8181036020830152611684818761152d565b90508181036040830152611698818661152d565b90506116a76060830185611428565b6116b460808301846114ac565b9695505050505050565b6000604051905081810181811067ffffffffffffffff821117156116e157600080fd5b8060405250919050565b600067ffffffffffffffff82111561170257600080fd5b601f19601f8301169050602081019050919050565b6000819050602082019050919050565b600081519050919050565b600081519050919050565b600081519050919050565b6000602082019050919050565b600082825260208201905092915050565b600082825260208201905092915050565b600082825260208201905092915050565b6000611793826117a6565b9050919050565b60008115159050919050565b600073ffffffffffffffffffffffffffffffffffffffff82169050919050565b6000819050919050565b82818337600083830152505050565b60005b838110156117fd5780820151818401526020810190506117e2565b8381111561180c576000848401525b50505050565b6000601f19601f8301169050919050565b61182c81611788565b811461183757600080fd5b50565b6118438161179a565b811461184e57600080fd5b50565b61185a816117c6565b811461186557600080fd5b5056fea365627a7a72315820254b3caad4b639804b4be4e7fd3cf062aa87a082126e328795ffd84ac19443a76c6578706572696d656e74616cf564736f6c63430005100040",
  "source": "pragma solidity >=0.4.21 <0.7.0;\npragma experimental ABIEncoderV2;\ncontract Record\n{\n   \n      //structure for the user or patient model\n    struct user{\n        uint patid;\n        string accountname; //user name\n        string password;    //user password\n        address useraddress; //user ethereum address\n        bool set;\n    }\n    uint public userCount=0; //number of user or patient registered\n     \n    mapping(address => user)  public userlist;\n   \n    //return the user name by mapping the address\n    function find_user_name(address  _address) public view returns(string memory){      \n      return userlist[_address].accountname;\n    }\n   \n     //return the user name by mapping the address\n    function find_user_password(address  _address) public view returns(string memory){      \n      return userlist[_address].password;\n    }\n   \n   \n   \n    //add user's name, ethereum address and password\n    function addUser(string memory _accountname,string memory _password, address  _useraddress,bool _userset) public{\n        user storage User = userlist[_useraddress];\n        require(!User.set);\n        uint ui=incrementcount();   //keep count of no. of registered user\n        ui=ui-1;\n        userlist[_useraddress]=user(ui,_accountname,_password,_useraddress,_userset);\n         count.push(0);\n    }\n   \n \n   \n    //increments every time to keep track of registered user\n     function incrementcount()   public returns(uint ){\n        return userCount+=1;\n    }\n   \n   \n   \n        //structure for the doctor\n    struct doctor{\n        string doctorname; //doctor name\n        string password;    //doctor password\n        address doctoraddress; //doctor ethereum address\n     \n        bool set; //to check whether doctor exist\n    }\n     uint[] count;\n    //structure ro store record\n    struct record{\n    address patientaddress;\n     string  recordHash;\n    }\n   \n    event HospitalAddition(address hospital);\n   \n    mapping (address => bool) public isHospital;\n    mapping(address => doctor)  public doctorlist;\n    mapping(address => mapping(uint => record)) recordList;\n    \n     function addHospital(address _hospital)   public\n    {\n        isHospital[_hospital] = true;\n        emit HospitalAddition(_hospital);\n    }\n   \n   \n    function addDoctor(string memory _doctorname,string memory _password, address  _doctoraddress,bool _doctorset) public{\n         doctor storage Doctor = doctorlist[_doctoraddress];\n    // Check that the doctor did not already exist:\n         require(!Doctor.set);\n        doctorlist[_doctoraddress]=doctor(_doctorname,_password,_doctoraddress,_doctorset);\n    }\n   \n    function addRecord(address _patientaddress,string memory _recordhash) public{\n        uint got=getId(_patientaddress);\n        count[got] = count[got]+1;\n        uint go=count[got];\n        recordList[_patientaddress][go]=record(_patientaddress,_recordhash);\n        \n    }\n   \n    function getRecord(address _patientaddress) public view returns(\n     string[] memory \n    ){  \n        uint gotId=getId(_patientaddress);\n        uint recordcount=getRecordCountPatient(gotId);\n        recordcount=recordcount+1;\n        string[] memory ret = new string[](recordcount);\n            for(uint i=1;i<recordcount;i++)\n            {\n                ret[i] = recordList[_patientaddress][i].recordHash;\n            }\n            return ret;\n    }\n    function getDoctorName(address _docaddress)  public view returns(string memory){\n        return doctorlist[_docaddress].doctorname;\n    }\n    function getDoctorPassword(address _docaddress)  public view returns(string memory){\n        return doctorlist[_docaddress].password;\n    }\n    \n   function getId(address _patientaddress) public view returns (uint){\n       return userlist[_patientaddress].patid;\n   }\n   \n   function getRecordCountPatient(uint _num) public view returns(uint){\n       return count[_num];\n   }\n   \n}\n",
  "sourcePath": "/home/anusha/Desktop/healthcare/contracts/Record.sol",
  "compiler": {
    "name": "solc",
    "version": "0.5.16+commit.9c3226ce.Emscripten.clang"
  },
  "schemaVersion": "3.0.23",
  "updatedAt": "2020-03-10T12:57:46.057Z",
  "devdoc": {
    "methods": {}
  },
  "userdoc": {
    "methods": {}
  }
}